:100000000C9434000C9451000C9451000C94510049
:100010000C9451000C9451000C9451000C9451001C
:100020000C9451000C9451000C9451000C9451000C
:100030000C9451000C9451000C9451000C945100FC
:100040000C9451000C9451000C9475000C945100C8
:100050000C9451000C9451000C9451000C945100DC
:100060000C9451000C94510011241FBECFEFD8E026
:10007000DEBFCDBF11E0A0E0B1E0EEECF1E002C0E8
:1000800005900D92A030B107D9F721E0A0E0B1E0D2
:1000900001C01D92A330B207E1F70E94DD000C946D
:1000A000E5000C9453001F920F920FB60F9211248B
:1000B0000F900FBE0F901F9018951092C50087E605
:1000C0008093C40080E98093C10086E08093C200E1
:1000D000089583EF84BD8093B00008951092B3001B
:1000E00017BC88BD8093B40008951F920F920FB67D
:1000F0000F9211242F933F934F935F936F937F93AE
:100100008F939F93AF93BF93EF93FF939091C6000C
:1001100080910001813071F028F0823099F08330B5
:10012000C9F02AC0923651F5809100018F5F80930B
:10013000000124C090930201809100018F5F8093A1
:1001400000011CC090930101809100018F5F80939A
:10015000000114C0913E91F41092000180910201BF
:100160000E946E002FE382E49FE021508040904087
:10017000E1F700C0000002C010920001FF91EF9172
:10018000BF91AF919F918F917F916F915F914F91AF
:100190003F912F910F900FBE0F901F901895239AAB
:1001A0008AB188668AB981E085BD8093B10086E016
:1001B00080936E008093700008950E94CF000E948B
:0E01C00069000E945D007894FFCFF894FFCF95
:00000001FF
