S01600004472697665526F626F74546573742E737265636E
S11300000C9434000C9451000C9451000C94510045
S11300100C9451000C9451000C9451000C94510018
S11300200C9451000C9451000C9451000C945D00FC
S11300300C9451000C9451000C9451000C945100F8
S11300400C9451000C9451000C94AA000C9451008F
S11300500C9451000C9451000C9451000C945100D8
S11300600C9451000C94510011241FBECFEFD8E022
S1130070DEBFCDBF11E0A0E0B1E0E0E4F2E002C0F9
S113008005900D92A030B107D9F721E0A0E0B1E0CE
S113009001C01D92A430B207E1F70E9411010C9433
S11300A01E010C9453001F920F920FB60F9211244D
S11300B00F900FBE0F901F9018951F920F920FB6BE
S11300C00F9211248F9380910301882329F05F9B61
S11300D002C05F9801C05F9A8F910F900FBE0F907E
S11300E01F901895579A5F9810928000E1E8F0E00D
S11300F088E0808310928200109289008AEF8093B6
S113010088008FEF80938B0080938A00AFE6B0E085
S11301108C9182608C9316BA109203018081816065
S1130120808308951092C50087E68093C40080E917
S11301308093C10086E08093C200089583EF84BD5C
S11301408093B00008951092B30017BC88BD8093CB
S1130150B40008951F920F920FB60F9211242F939B
S11301603F934F935F936F937F938F939F93AF933B
S1130170BF93EF93FF939091C6008091000181306B
S113018071F028F0823099F08330C9F02AC0923699
S113019051F5809100018F5F8093000124C09093FA
S11301A00201809100018F5F809300011CC0909335
S11301B00101809100018F5F8093000114C0913E82
S11301C091F410920001809102010E94A3002FEF8C
S11301D081E19AE7215080409040E1F700C000009F
S11301E002C010920001FF91EF91BF91AF919F91D6
S11301F08F917F916F915F914F913F912F910F90CC
S11302000FBE0F901F901895239A8AB188668AB9F9
S113021081E085BD8093B10010926E001092700051
S113022008950E9404010E949E000E9472000E9490
S11302309200789481E080930301FDCFF894FFCF7E
S9030000FC
