:040000000128FE2FA6
:100E9200103421008C1022008C1408000A340B3408
:100EA2000C340D340E340F34113412341334143420
:100EB20015341634240095127927240015121417BC
:100EC2009413F03095052000911124009516080026
:100ED2004A2779275B270530F6007608F00078303C
:100EE200F7007708F1000530CB2778308B276C2F7D
:100EF20021008E110E100E118E140E120C15951368
:100F020024008C160C15103022009D0023008C0149
:100F12008E010800F400F501043075020318080080
:100F220075087407F30073088600870101089E277D
:100F32000130F3007308F5078D2FF10022008C10A9
:100F42008A30890BA22F0032F20108307202031894
:100F5200C42F7108F000720AAF2FF036890BAE2F42
:100F6200701CB62F22008C14B82F22008C108A30ED
:100F7200890BB92F00320130F0007008F2070830F7
:100F82007202031CAA2F22008C148A30890BC72FED
:100F920000320800F3000C30F2007108860087016D
:100FA200720881000B30F2007108033E860087014F
:100FB200720881000B307302031CE12F0A30E22F0A
:100FC2007308F200710A86008701720881000B30F3
:100FD2007002031CF52F0A30F2007108023E8600EF
:100FE20087017208810008007008F2007108023E51
:0E0FF200860087017208810008002000692F28
:020000040001F9
:04000E00FFFFFFFFF2
:00000001FF
