:040000000128FE2FA6
:100C8E00103421008E1222008E1608000A340B3406
:100C9E000C340D340E340F34113412341334143426
:100CAE001534163422008E1161309226FF309226B2
:100CBE00F3007308F40022008E1574080800240057
:100CCE009512A2262400151214179413F0309505D0
:100CDE0020009111240095160800F40022008E11B8
:100CEE0074081F399226FF309226F3007308F50020
:100CFE0022008E15750808002730F9007908FA00D1
:100D0E007030F9007908FB000230F9007908F30021
:100D1E007A30C6260800F1007108240091002000E8
:100D2E00911D962E24001108F0007008F20020008C
:100D3E0091117208080021008E110E100E118E14E2
:100D4E000C150E12951324000C15103022009D0068
:100D5E0023008C018E010800F400F50104307502A9
:100D6E000318080075087407F300730886008701DE
:100D7E000108E1260130F3007308F507B52EF800DF
:100D8E0022008E11F701730877020318DE2E770802
:100D9E007807F40074088600870101089226F50092
:100DAE007508F6000130F4007408F707CA2E220009
:100DBE008E150800F10022008E128A30890BE52E66
:100DCE000032F201083072020318072F7108F0008A
:100DDE00720AF22EF036890BF12E701CF92E2200BB
:100DEE008E16FB2E22008E128A30890BFC2E0032BC
:100DFE000130F0007008F20708307202031CED2E6D
:100E0E0022008E168A30890B0A2F00320800F3005A
:100E1E000C30F200710886008701720881000B30D9
:100E2E00F2007108033E86008701720881000B30C4
:100E3E007302031C242F0A30252F7308F200710A47
:100E4E0086008701720881000B307002031C382F58
:100E5E000A30F2007108023E860087017208810096
:100E6E0008007008F2007108023E860087017208C1
:100E7E008100080022000E120630F9003030890B76
:100E8E00462FF90B462F003222008E153430F90012
:100E9E00F230890B502FF90B502F2030F9007908C2
:100EAE00FA003B30F9007908FB000230F9007908AE
:100EBE00F3007A30C6262130F9007908FA00FB01DA
:100ECE00FB0A0230F9007908F3007A30C626223088
:100EDE00F9007908FA00FB01FB0A0230F9007908E3
:100EEE00F3007A30C6265330840086308500000821
:100EFE001F392038F9007908FA00FB01FB0A02308D
:100F0E00F9007908F3007A30C6262330F900790803
:100F1E00FA000330F9007908FB000230F900790875
:100F2E00F3007A30C62608007830210099048C1020
:100F3E00482666260530FC007C08F0002030FD00B7
:100F4E007D08F10005300E27F0012430FC007C08EE
:100F5E00F10000300E2722008C104127003074263D
:100F6E003B3A031DE62F031022008C1C0314031CB6
:100F7E00C32F22008C14C52F22008C100B30FD00C5
:100F8E002630FC005E30890BCA2FFC0BCA2FFD0BDE
:100F9E00CA2F031022008C1C0314031CD92F22000D
:100FAE008C14DB2F22008C100B30FD002630FC0041
:100FBE005E30890BE02FFC0BE02FFD0BE02F2200A3
:100FCE000E1620000C19E82F22000E125926FC00D6
:100FDE007C082000A8008326CF3020002806031DA1
:100FEE00FB2F2030B326E62F2430B326E62F200029
:020FFE009B2F27
:020000040001F9
:04000E00E4F9FFFF13
:00000001FF
