:040000000128FE2FA6
:100C04001034B13414348034383421000C16080004
:100C1400CF348334F234F5340A340B340C340D34C9
:100C24000E340F341134123413341434153416348E
:100C34002400951256262400151214179413F0302C
:100C4400950520009111240095160800F400220057
:100C54008E1174081F394626FF304626F3007308A8
:100C6400F50022008E15750808002730F900790870
:100C7400FA007030F9007908FB000230F9007908B5
:100C8400F3007A3067260800F1007108240091000F
:100C94002000911D4A2E24001108F0007008F20073
:100CA400200091117208080021008E110E100E11FF
:100CB4008E140C150E12951324000C1510302200FE
:100CC4009D0023008C018E010800F80022008E1183
:100CD400F7017308770203187F2E77087807F4006A
:100CE40074088600870101084626F5007508F60099
:100CF4000130F4007408F7076B2E22008E150800EB
:100D0400F50022008E1161304626F601033076028A
:100D140003189F2EFF304626F30076087507F4006B
:100D2400740886008701730881000130F30073089A
:100D3400F60703307602031C8C2E22008E15080061
:100D44002000AD00A030A0002008A200AF017C0864
:100D54002F020318C12E2F082D07A000200886009B
:100D640087010108A1002F08013E223E8600870169
:100D7400210881000130A0002008AF07A92E7C08BB
:100D8400013EA0002008F3002230672622000E1640
:100D94001430890BCB2E22000E1220000C19CF2EFA
:100DA40022008E11FF3046262000A0002008AE004D
:100DB40022008E15372620002E083039031D080026
:100DC400C82E22000E120630F9003030890BE82EAE
:100DD400F90BE82E003222008E150630F90030306F
:100DE400890BF22EF90BF22E00322030F90079082B
:100DF400FA003B30F9007908FB000230F900790869
:100E0400F3007A3067262130F9007908FA00FB01F3
:100E1400FB0A0230F9007908F3007A3067262230A1
:100E2400F9007908FA00FB01FB0A0230F90079089D
:100E3400F3007A3067261430840086308500000879
:100E44001F392038F9007908FA000330F9007908CD
:100E5400FB000230F9007908F3007A30672623306A
:100E6400F9007908FA000330F9007908FB00023030
:100E7400F9007908F3007A306726080022000E1280
:100E84000630F9003030890B452FF90B452F00321D
:100E940022008E150630F9003030890B4F2FF90BE4
:100EA4004F2F00322030F9007908FA004A30F90057
:100EB4007908FB000230F9007908F3007A306726DC
:100EC4002130F9007908FA00FB01FB0A0230F9002D
:100ED4007908F3007A3067262230F9007908FA009D
:100EE400FB01FB0A0230F9007908F3007A30672627
:100EF400143084008630850000081F392038F9003A
:100F04007908FA000330F9007908FB000230F9008F
:100F14007908F3007A3067262330F9007908FA005B
:100F24000330F9007908FB000230F9007908F30076
:100F34007A306726080021008C1022008C1078304B
:100F44002100990407261A2640270330840086309E
:100F540085000008FD007D082000B300DD30FD00A1
:100F64007D08B400EE30FD007D08B500E3260030B6
:100F740028263B3A031DB82FFF30FD007D082000D2
:100F8400B00004308400863085000008FD00200095
:100F940030087D060319D92F22000E168C1020006C
:100FA4000C19D12F22000E1230308226C32F2200BA
:100FB4008C142000B901BA010C1EE52F0130B907C9
:100FC4000030BA3DDE2F4027033084008630850090
:100FD4000008FD007D082000B6003908FD007D08EA
:100FE400B7003A08FD007D08B8000330FD007D0815
:0C0FF400FC003630A226B92F20009D2FF3
:020000040001F9
:04000E00E4F9FFFF13
:00000001FF
