S01200004472697665526F626F742E7372656312
S11300000C9434000C9451000C9451000C94510045
S11300100C9451000C9451000C9451000C94510018
S11300200C9451000C9451000C9451000C94510008
S11300300C9451000C9451000C9451000C945100F8
S11300400C9451000C9451000C949E000C9451009B
S11300500C9451000C9451000C9451000C945100D8
S11300600C9451000C94510011241FBECFEFD8E022
S1130070DEBFCDBF11E0A0E0B1E0ECEEF1E002C0E4
S113008005900D92A030B107D9F721E0A0E0B1E0CE
S113009001C01D92A530B207E1F70E94EC000C9458
S11300A0F4000C9453001F920F920FB60F92112478
S11300B00F900FBE0F901F9018951092C50081E805
S11300C08093C40080E98093C10086E08093C200DD
S11300D0089583EF84BD8093B0000895611107C033
S11300E017BC18BC1092B3001092B400089517BC4A
S11300F0962F990F990F990F690F68BD1092B3004D
S11301006093B400893070F448B528E030E0B90158
S1130110681B7109CB01962F990F890F880F840FE3
S113012088BD0895E4EBF0E0208190E00897982FD3
S1130130990F890F880F820F808308951F920F9261
S11301400FB60F9211242F933F934F935F936F93A6
S11301507F938F939F93AF93BF93EF93FF9380917C
S1130160C600813111F410920001E091000191E088
S11301709E0F90930001F0E0EF5FFE4F808380912B
S11301800001843051F480910401803131F4E1E0C4
S1130190F1E0628181810E946E00FF91EF91BF9135
S11301A0AF919F918F917F916F915F914F913F910B
S11301B02F910F900FBE0F901F901895239A8AB11C
S11301C088668AB981E085BD8093B10086E080931A
S11301D06E008093700008950E94DE000E94690002
S10F01E00E945D007894FFCFF894FFCFDC
S9030000FC
