S01200004472697665526F626F742E7372656312
S11300000C9434000C9451000C9451000C94510045
S11300100C9451000C9451000C9451000C94510018
S11300200C9451000C9451000C9451000C945D00FC
S11300300C9451000C9451000C9451000C945100F8
S11300400C9451000C9451000C94EB000C9451004E
S11300500C9451000C9451000C9451000C945100D8
S11300600C9451000C94510011241FBECFEFD8E022
S1130070DEBFCDBF11E0A0E0B1E0EEEDF2E002C0E2
S113008005900D92A030B107D9F721E0A0E0B1E0CE
S113009001C01D92A930B207E1F70E9461010C94DE
S11300A06D010C9453001F920F920FB60F921124FE
S11300B00F900FBE0F901F9018951F920F920FB6BE
S11300C00F9211248F939F9380910301882371F0E1
S11300D05F9B0BC080910101909102010196909366
S11300E00201809301015F9801C05F9A8091010130
S11300F090910201883C910534F010920201109213
S11301000101109203019F918F910F900FBE0F90E8
S11301101F901895579A5F9810928000E1E8F0E0DC
S113012088E0808310928200109289008AEF809385
S113013088008FEF80938B0080938A00AFE6B0E055
S11301408C9182608C9316BA109203018081816035
S1130150808308951092C50081E88093C40080E9EB
S11301608093C10086E08093C200089583EF84BD2C
S11301708093B0000895611107C017BC18BC109299
S1130180B3001092B400089517BC962F990F990FDD
S1130190990F690F68BD1092B3006093B400893061
S11301A070F448B528E030E0B901681B7109CB014F
S11301B0962F990F890F880F840F88BD0895E4EB5B
S11301C0F0E0208190E00897982F990F890F880F0D
S11301D0820F808308951F920F920FB60F921124FD
S11301E02F933F934F935F936F937F938F939F933B
S11301F0AF93BF93EF93FF938091C6008093000168
S113020080910001813121F080910401882359F10A
S113021080910001843139F180910001813111F420
S113022010920401E091040181E08E0F8093040197
S113023080910001F0E0EB5FFE4F80838091040128
S1130240843001F5809100018031E1F4809108014E
S11302508031C1F4E5E0F1E0628181810E94BB005C
S1130260109204010FC080910001843159F48091EF
S11302700401811107C081E08093030110920201FF
S113028010920101FF91EF91BF91AF919F918F91D6
S11302907F916F915F914F913F912F910F900FBE7E
S11302A00F901F901895239A8AB188668AB981E0C5
S11302B085BD8093B10086E080936E0080937000CA
S11302C00895109203010E9453010E94B6000E94F7
S11102D08A000E94AA007894FFCFF894FFCF12
S9030000FC
